{
  "_format": "hh-sol-artifact-1",
  "contractName": "UtilityMarketplace",
  "sourceName": "contracts/UtilityMarketplace.sol",
  "abi": [
    {
      "inputs": [],
      "stateMutability": "nonpayable",
      "type": "constructor"
    },
    {
      "anonymous": false,
      "inputs": [
        {
          "indexed": true,
          "internalType": "uint256",
          "name": "itemNo",
          "type": "uint256"
        },
        {
          "indexed": true,
          "internalType": "address",
          "name": "nftContract",
          "type": "address"
        },
        {
          "indexed": true,
          "internalType": "uint256",
          "name": "tokenId",
          "type": "uint256"
        },
        {
          "indexed": false,
          "internalType": "address",
          "name": "seller",
          "type": "address"
        },
        {
          "indexed": false,
          "internalType": "address",
          "name": "owner",
          "type": "address"
        },
        {
          "indexed": false,
          "internalType": "uint256",
          "name": "price",
          "type": "uint256"
        },
        {
          "indexed": false,
          "internalType": "bool",
          "name": "sold",
          "type": "bool"
        }
      ],
      "name": "ItemCreated",
      "type": "event"
    },
    {
      "stateMutability": "payable",
      "type": "fallback"
    },
    {
      "inputs": [
        {
          "internalType": "address",
          "name": "nftContract",
          "type": "address"
        },
        {
          "internalType": "uint256",
          "name": "itemNo",
          "type": "uint256"
        }
      ],
      "name": "createItemSale",
      "outputs": [],
      "stateMutability": "payable",
      "type": "function"
    },
    {
      "inputs": [
        {
          "internalType": "address",
          "name": "nftContract",
          "type": "address"
        },
        {
          "internalType": "uint256",
          "name": "tokenId",
          "type": "uint256"
        },
        {
          "internalType": "uint256",
          "name": "price",
          "type": "uint256"
        }
      ],
      "name": "createUtilityMarketItem",
      "outputs": [],
      "stateMutability": "payable",
      "type": "function"
    },
    {
      "inputs": [
        {
          "internalType": "uint256",
          "name": "itemId",
          "type": "uint256"
        }
      ],
      "name": "fetchItemById",
      "outputs": [
        {
          "components": [
            {
              "internalType": "uint256",
              "name": "itemNo",
              "type": "uint256"
            },
            {
              "internalType": "address",
              "name": "nftContract",
              "type": "address"
            },
            {
              "internalType": "uint256",
              "name": "tokenId",
              "type": "uint256"
            },
            {
              "internalType": "address payable",
              "name": "seller",
              "type": "address"
            },
            {
              "internalType": "address payable",
              "name": "owner",
              "type": "address"
            },
            {
              "internalType": "uint256",
              "name": "price",
              "type": "uint256"
            },
            {
              "internalType": "bool",
              "name": "sold",
              "type": "bool"
            }
          ],
          "internalType": "struct UtilityMarketplace.Item",
          "name": "",
          "type": "tuple"
        }
      ],
      "stateMutability": "view",
      "type": "function"
    },
    {
      "inputs": [],
      "name": "fetchItems",
      "outputs": [
        {
          "components": [
            {
              "internalType": "uint256",
              "name": "itemNo",
              "type": "uint256"
            },
            {
              "internalType": "address",
              "name": "nftContract",
              "type": "address"
            },
            {
              "internalType": "uint256",
              "name": "tokenId",
              "type": "uint256"
            },
            {
              "internalType": "address payable",
              "name": "seller",
              "type": "address"
            },
            {
              "internalType": "address payable",
              "name": "owner",
              "type": "address"
            },
            {
              "internalType": "uint256",
              "name": "price",
              "type": "uint256"
            },
            {
              "internalType": "bool",
              "name": "sold",
              "type": "bool"
            }
          ],
          "internalType": "struct UtilityMarketplace.Item[]",
          "name": "",
          "type": "tuple[]"
        }
      ],
      "stateMutability": "view",
      "type": "function"
    },
    {
      "inputs": [],
      "name": "fetchMyItems",
      "outputs": [
        {
          "components": [
            {
              "internalType": "uint256",
              "name": "itemNo",
              "type": "uint256"
            },
            {
              "internalType": "address",
              "name": "nftContract",
              "type": "address"
            },
            {
              "internalType": "uint256",
              "name": "tokenId",
              "type": "uint256"
            },
            {
              "internalType": "address payable",
              "name": "seller",
              "type": "address"
            },
            {
              "internalType": "address payable",
              "name": "owner",
              "type": "address"
            },
            {
              "internalType": "uint256",
              "name": "price",
              "type": "uint256"
            },
            {
              "internalType": "bool",
              "name": "sold",
              "type": "bool"
            }
          ],
          "internalType": "struct UtilityMarketplace.Item[]",
          "name": "",
          "type": "tuple[]"
        }
      ],
      "stateMutability": "view",
      "type": "function"
    },
    {
      "inputs": [],
      "name": "getInitialPrice",
      "outputs": [
        {
          "internalType": "uint256",
          "name": "",
          "type": "uint256"
        }
      ],
      "stateMutability": "view",
      "type": "function"
    },
    {
      "stateMutability": "payable",
      "type": "receive"
    }
  ],
  "bytecode": "0x608060405266470de4df82000060045534801561001b57600080fd5b50600160008190555033600360006101000a81548173ffffffffffffffffffffffffffffffffffffffff021916908373ffffffffffffffffffffffffffffffffffffffff1602179055506118c8806100746000396000f3fe6080604052600436106100595760003560e01c806306f660ef1461006257806315c9ae101461008d5780631b19b267146100b85780633aa3c063146100d4578063ad78ba7b146100f0578063db16acff1461011b57610060565b3661006057005b005b34801561006e57600080fd5b50610077610158565b6040516100849190610fe7565b60405180910390f35b34801561009957600080fd5b506100a2610162565b6040516100af91906111cb565b60405180910390f35b6100d260048036038101906100cd919061124a565b61048c565b005b6100ee60048036038101906100e9919061129d565b6107f0565b005b3480156100fc57600080fd5b50610105610b0f565b60405161011291906111cb565b60405180910390f35b34801561012757600080fd5b50610142600480360381019061013d91906112dd565b610dc1565b60405161014f9190611398565b60405180910390f35b6000600454905090565b606060006101706001610f29565b905060008060005b8381101561020d573373ffffffffffffffffffffffffffffffffffffffff166005600083815260200190815260200160002060040160009054906101000a900473ffffffffffffffffffffffffffffffffffffffff1673ffffffffffffffffffffffffffffffffffffffff1614156101fa576001836101f791906113e2565b92505b808061020590611438565b915050610178565b5060008267ffffffffffffffff81111561022a57610229611481565b5b60405190808252806020026020018201604052801561026357816020015b610250610f4d565b8152602001906001900390816102485790505b50905060005b84811015610481573373ffffffffffffffffffffffffffffffffffffffff166005600083815260200190815260200160002060040160009054906101000a900473ffffffffffffffffffffffffffffffffffffffff1673ffffffffffffffffffffffffffffffffffffffff16141561046e5760008190506000600560008381526020019081526020016000209050806040518060e0016040529081600082015481526020016001820160009054906101000a900473ffffffffffffffffffffffffffffffffffffffff1673ffffffffffffffffffffffffffffffffffffffff1673ffffffffffffffffffffffffffffffffffffffff168152602001600282015481526020016003820160009054906101000a900473ffffffffffffffffffffffffffffffffffffffff1673ffffffffffffffffffffffffffffffffffffffff1673ffffffffffffffffffffffffffffffffffffffff1681526020016004820160009054906101000a900473ffffffffffffffffffffffffffffffffffffffff1673ffffffffffffffffffffffffffffffffffffffff1673ffffffffffffffffffffffffffffffffffffffff168152602001600582015481526020016006820160009054906101000a900460ff161515151581525050848681518110610451576104506114b0565b5b602002602001018190525060018561046991906113e2565b945050505b808061047990611438565b915050610269565b508094505050505090565b600260005414156104d2576040517f08c379a00000000000000000000000000000000000000000000000000000000081526004016104c99061153c565b60405180910390fd5b60026000819055506000811161051d576040517f08c379a0000000000000000000000000000000000000000000000000000000008152600401610514906115a8565b60405180910390fd5b6004543414610561576040517f08c379a00000000000000000000000000000000000000000000000000000000081526004016105589061163a565b60405180910390fd5b600061056d6001610f29565b90506040518060e001604052808281526020018573ffffffffffffffffffffffffffffffffffffffff1681526020018481526020013373ffffffffffffffffffffffffffffffffffffffff168152602001600073ffffffffffffffffffffffffffffffffffffffff16815260200183815260200160001515815250600560008381526020019081526020016000206000820151816000015560208201518160010160006101000a81548173ffffffffffffffffffffffffffffffffffffffff021916908373ffffffffffffffffffffffffffffffffffffffff1602179055506040820151816002015560608201518160030160006101000a81548173ffffffffffffffffffffffffffffffffffffffff021916908373ffffffffffffffffffffffffffffffffffffffff16021790555060808201518160040160006101000a81548173ffffffffffffffffffffffffffffffffffffffff021916908373ffffffffffffffffffffffffffffffffffffffff16021790555060a0820151816005015560c08201518160060160006101000a81548160ff0219169083151502179055509050508373ffffffffffffffffffffffffffffffffffffffff166323b872dd3330866040518463ffffffff1660e01b815260040161074e93929190611669565b600060405180830381600087803b15801561076857600080fd5b505af115801561077c573d6000803e3d6000fd5b5050505061078a6001610f37565b828473ffffffffffffffffffffffffffffffffffffffff16827feafffdc459cdbf1037f95d7034bacc7d5709b281c19fc17291040a82d81d1eb43360008760006040516107da94939291906116af565b60405180910390a4506001600081905550505050565b60026000541415610836576040517f08c379a000000000000000000000000000000000000000000000000000000000815260040161082d9061153c565b60405180910390fd5b60026000819055506000600560008381526020019081526020016000206002015490506000600560008481526020019081526020016000206005015490508034146108b6576040517f08c379a00000000000000000000000000000000000000000000000000000000081526004016108ad9061178c565b60405180910390fd5b60006005600085815260200190815260200160002060030160009054906101000a900473ffffffffffffffffffffffffffffffffffffffff1673ffffffffffffffffffffffffffffffffffffffff1634604051610912906117dd565b60006040518083038185875af1925050503d806000811461094f576040519150601f19603f3d011682016040523d82523d6000602084013e610954565b606091505b5050905080610998576040517f08c379a000000000000000000000000000000000000000000000000000000000815260040161098f9061183e565b60405180910390fd5b8473ffffffffffffffffffffffffffffffffffffffff166323b872dd3033866040518463ffffffff1660e01b81526004016109d593929190611669565b600060405180830381600087803b1580156109ef57600080fd5b505af1158015610a03573d6000803e3d6000fd5b50505050336005600086815260200190815260200160002060040160006101000a81548173ffffffffffffffffffffffffffffffffffffffff021916908373ffffffffffffffffffffffffffffffffffffffff16021790555060016005600086815260200190815260200160002060060160006101000a81548160ff021916908315150217905550610a956002610f37565b600360009054906101000a900473ffffffffffffffffffffffffffffffffffffffff1673ffffffffffffffffffffffffffffffffffffffff166108fc6004549081150290604051600060405180830381858888f19350505050158015610aff573d6000803e3d6000fd5b5050505060016000819055505050565b60606000610b1d6001610f29565b90506000610b2b6002610f29565b610b356001610f29565b610b3f919061185e565b90506000808267ffffffffffffffff811115610b5e57610b5d611481565b5b604051908082528060200260200182016040528015610b9757816020015b610b84610f4d565b815260200190600190039081610b7c5790505b50905060005b84811015610db657600073ffffffffffffffffffffffffffffffffffffffff166005600083815260200190815260200160002060040160009054906101000a900473ffffffffffffffffffffffffffffffffffffffff1673ffffffffffffffffffffffffffffffffffffffff161415610da35760008190506000600560008381526020019081526020016000209050806040518060e0016040529081600082015481526020016001820160009054906101000a900473ffffffffffffffffffffffffffffffffffffffff1673ffffffffffffffffffffffffffffffffffffffff1673ffffffffffffffffffffffffffffffffffffffff168152602001600282015481526020016003820160009054906101000a900473ffffffffffffffffffffffffffffffffffffffff1673ffffffffffffffffffffffffffffffffffffffff1673ffffffffffffffffffffffffffffffffffffffff1681526020016004820160009054906101000a900473ffffffffffffffffffffffffffffffffffffffff1673ffffffffffffffffffffffffffffffffffffffff1673ffffffffffffffffffffffffffffffffffffffff168152602001600582015481526020016006820160009054906101000a900460ff161515151581525050848681518110610d8657610d856114b0565b5b6020026020010181905250600185610d9e91906113e2565b945050505b8080610dae90611438565b915050610b9d565b508094505050505090565b610dc9610f4d565b600560008381526020019081526020016000206040518060e0016040529081600082015481526020016001820160009054906101000a900473ffffffffffffffffffffffffffffffffffffffff1673ffffffffffffffffffffffffffffffffffffffff1673ffffffffffffffffffffffffffffffffffffffff168152602001600282015481526020016003820160009054906101000a900473ffffffffffffffffffffffffffffffffffffffff1673ffffffffffffffffffffffffffffffffffffffff1673ffffffffffffffffffffffffffffffffffffffff1681526020016004820160009054906101000a900473ffffffffffffffffffffffffffffffffffffffff1673ffffffffffffffffffffffffffffffffffffffff1673ffffffffffffffffffffffffffffffffffffffff168152602001600582015481526020016006820160009054906101000a900460ff1615151515815250509050919050565b600081600001549050919050565b6001816000016000828254019250508190555050565b6040518060e0016040528060008152602001600073ffffffffffffffffffffffffffffffffffffffff16815260200160008152602001600073ffffffffffffffffffffffffffffffffffffffff168152602001600073ffffffffffffffffffffffffffffffffffffffff168152602001600081526020016000151581525090565b6000819050919050565b610fe181610fce565b82525050565b6000602082019050610ffc6000830184610fd8565b92915050565b600081519050919050565b600082825260208201905092915050565b6000819050602082019050919050565b61103781610fce565b82525050565b600073ffffffffffffffffffffffffffffffffffffffff82169050919050565b60006110688261103d565b9050919050565b6110788161105d565b82525050565b60006110898261103d565b9050919050565b6110998161107e565b82525050565b60008115159050919050565b6110b48161109f565b82525050565b60e0820160008201516110d0600085018261102e565b5060208201516110e3602085018261106f565b5060408201516110f6604085018261102e565b5060608201516111096060850182611090565b50608082015161111c6080850182611090565b5060a082015161112f60a085018261102e565b5060c082015161114260c08501826110ab565b50505050565b600061115483836110ba565b60e08301905092915050565b6000602082019050919050565b600061117882611002565b611182818561100d565b935061118d8361101e565b8060005b838110156111be5781516111a58882611148565b97506111b083611160565b925050600181019050611191565b5085935050505092915050565b600060208201905081810360008301526111e5818461116d565b905092915050565b600080fd5b6111fb8161105d565b811461120657600080fd5b50565b600081359050611218816111f2565b92915050565b61122781610fce565b811461123257600080fd5b50565b6000813590506112448161121e565b92915050565b600080600060608486031215611263576112626111ed565b5b600061127186828701611209565b935050602061128286828701611235565b925050604061129386828701611235565b9150509250925092565b600080604083850312156112b4576112b36111ed565b5b60006112c285828601611209565b92505060206112d385828601611235565b9150509250929050565b6000602082840312156112f3576112f26111ed565b5b600061130184828501611235565b91505092915050565b60e082016000820151611320600085018261102e565b506020820151611333602085018261106f565b506040820151611346604085018261102e565b5060608201516113596060850182611090565b50608082015161136c6080850182611090565b5060a082015161137f60a085018261102e565b5060c082015161139260c08501826110ab565b50505050565b600060e0820190506113ad600083018461130a565b92915050565b7f4e487b7100000000000000000000000000000000000000000000000000000000600052601160045260246000fd5b60006113ed82610fce565b91506113f883610fce565b9250827fffffffffffffffffffffffffffffffffffffffffffffffffffffffffffffffff0382111561142d5761142c6113b3565b5b828201905092915050565b600061144382610fce565b91507fffffffffffffffffffffffffffffffffffffffffffffffffffffffffffffffff821415611476576114756113b3565b5b600182019050919050565b7f4e487b7100000000000000000000000000000000000000000000000000000000600052604160045260246000fd5b7f4e487b7100000000000000000000000000000000000000000000000000000000600052603260045260246000fd5b600082825260208201905092915050565b7f5265656e7472616e637947756172643a207265656e7472616e742063616c6c00600082015250565b6000611526601f836114df565b9150611531826114f0565b602082019050919050565b6000602082019050818103600083015261155581611519565b9050919050565b7f5072696365206d7573742062652067726561746572207468616e203000000000600082015250565b6000611592601c836114df565b915061159d8261155c565b602082019050919050565b600060208201905081810360008301526115c181611585565b9050919050565b7f5072696365206d75737420626520657175616c20746f206c697374696e67207060008201527f7269636500000000000000000000000000000000000000000000000000000000602082015250565b60006116246024836114df565b915061162f826115c8565b604082019050919050565b6000602082019050818103600083015261165381611617565b9050919050565b6116638161105d565b82525050565b600060608201905061167e600083018661165a565b61168b602083018561165a565b6116986040830184610fd8565b949350505050565b6116a98161109f565b82525050565b60006080820190506116c4600083018761165a565b6116d1602083018661165a565b6116de6040830185610fd8565b6116eb60608301846116a0565b95945050505050565b7f506c65617365206d616b6520737572652074686520616d6f756e7420746f206260008201527f65207061696420697320657175616c20746f20746865206c697374656420707260208201527f6963650000000000000000000000000000000000000000000000000000000000604082015250565b60006117766043836114df565b9150611781826116f4565b606082019050919050565b600060208201905081810360008301526117a581611769565b9050919050565b600081905092915050565b50565b60006117c76000836117ac565b91506117d2826117b7565b600082019050919050565b60006117e8826117ba565b9150819050919050565b7f5472616e73666572206661696c65640000000000000000000000000000000000600082015250565b6000611828600f836114df565b9150611833826117f2565b602082019050919050565b600060208201905081810360008301526118578161181b565b9050919050565b600061186982610fce565b915061187483610fce565b925082821015611887576118866113b3565b5b82820390509291505056fea2646970667358221220d0d4b9dddf5ae5be1b8b8539cb7c1738462ae8330d6a20332a4b81d1845602b364736f6c634300080b0033",
  "linkReferences": {},
  "deployedLinkReferences": {}
}