{
  "_format": "hh-sol-artifact-1",
  "contractName": "UtilityNFT",
  "sourceName": "contracts/UtilityNFT.sol",
  "abi": [
    {
      "inputs": [
        {
          "internalType": "address",
          "name": "marketplaceAddress",
          "type": "address"
        }
      ],
      "stateMutability": "nonpayable",
      "type": "constructor"
    },
    {
      "anonymous": false,
      "inputs": [
        {
          "indexed": true,
          "internalType": "address",
          "name": "owner",
          "type": "address"
        },
        {
          "indexed": true,
          "internalType": "address",
          "name": "approved",
          "type": "address"
        },
        {
          "indexed": true,
          "internalType": "uint256",
          "name": "tokenId",
          "type": "uint256"
        }
      ],
      "name": "Approval",
      "type": "event"
    },
    {
      "anonymous": false,
      "inputs": [
        {
          "indexed": true,
          "internalType": "address",
          "name": "owner",
          "type": "address"
        },
        {
          "indexed": true,
          "internalType": "address",
          "name": "operator",
          "type": "address"
        },
        {
          "indexed": false,
          "internalType": "bool",
          "name": "approved",
          "type": "bool"
        }
      ],
      "name": "ApprovalForAll",
      "type": "event"
    },
    {
      "anonymous": false,
      "inputs": [
        {
          "indexed": true,
          "internalType": "address",
          "name": "from",
          "type": "address"
        },
        {
          "indexed": true,
          "internalType": "address",
          "name": "to",
          "type": "address"
        },
        {
          "indexed": true,
          "internalType": "uint256",
          "name": "tokenId",
          "type": "uint256"
        }
      ],
      "name": "Transfer",
      "type": "event"
    },
    {
      "inputs": [
        {
          "internalType": "address",
          "name": "to",
          "type": "address"
        },
        {
          "internalType": "uint256",
          "name": "tokenId",
          "type": "uint256"
        }
      ],
      "name": "approve",
      "outputs": [],
      "stateMutability": "nonpayable",
      "type": "function"
    },
    {
      "inputs": [
        {
          "internalType": "address",
          "name": "owner",
          "type": "address"
        }
      ],
      "name": "balanceOf",
      "outputs": [
        {
          "internalType": "uint256",
          "name": "",
          "type": "uint256"
        }
      ],
      "stateMutability": "view",
      "type": "function"
    },
    {
      "inputs": [],
      "name": "collectionName",
      "outputs": [
        {
          "internalType": "string",
          "name": "",
          "type": "string"
        }
      ],
      "stateMutability": "view",
      "type": "function"
    },
    {
      "inputs": [],
      "name": "collectionSymbol",
      "outputs": [
        {
          "internalType": "string",
          "name": "",
          "type": "string"
        }
      ],
      "stateMutability": "view",
      "type": "function"
    },
    {
      "inputs": [],
      "name": "createUtilityNFT",
      "outputs": [
        {
          "internalType": "uint256",
          "name": "",
          "type": "uint256"
        }
      ],
      "stateMutability": "nonpayable",
      "type": "function"
    },
    {
      "inputs": [
        {
          "internalType": "uint256",
          "name": "tokenId",
          "type": "uint256"
        }
      ],
      "name": "getApproved",
      "outputs": [
        {
          "internalType": "address",
          "name": "",
          "type": "address"
        }
      ],
      "stateMutability": "view",
      "type": "function"
    },
    {
      "inputs": [],
      "name": "getMyUtilityNFT",
      "outputs": [
        {
          "components": [
            {
              "internalType": "uint256",
              "name": "tokenId",
              "type": "uint256"
            },
            {
              "internalType": "address",
              "name": "owner",
              "type": "address"
            },
            {
              "internalType": "string",
              "name": "tokenUri",
              "type": "string"
            }
          ],
          "internalType": "struct UtilityNFT.nftItem[]",
          "name": "",
          "type": "tuple[]"
        }
      ],
      "stateMutability": "view",
      "type": "function"
    },
    {
      "inputs": [
        {
          "internalType": "address",
          "name": "owner",
          "type": "address"
        },
        {
          "internalType": "address",
          "name": "operator",
          "type": "address"
        }
      ],
      "name": "isApprovedForAll",
      "outputs": [
        {
          "internalType": "bool",
          "name": "",
          "type": "bool"
        }
      ],
      "stateMutability": "view",
      "type": "function"
    },
    {
      "inputs": [],
      "name": "name",
      "outputs": [
        {
          "internalType": "string",
          "name": "",
          "type": "string"
        }
      ],
      "stateMutability": "view",
      "type": "function"
    },
    {
      "inputs": [
        {
          "internalType": "uint256",
          "name": "tokenId",
          "type": "uint256"
        }
      ],
      "name": "ownerOf",
      "outputs": [
        {
          "internalType": "address",
          "name": "",
          "type": "address"
        }
      ],
      "stateMutability": "view",
      "type": "function"
    },
    {
      "inputs": [
        {
          "internalType": "uint256",
          "name": "tokenId",
          "type": "uint256"
        }
      ],
      "name": "pickFirstWord",
      "outputs": [
        {
          "internalType": "string",
          "name": "",
          "type": "string"
        }
      ],
      "stateMutability": "view",
      "type": "function"
    },
    {
      "inputs": [
        {
          "internalType": "uint256",
          "name": "tokenId",
          "type": "uint256"
        }
      ],
      "name": "pickSecondWord",
      "outputs": [
        {
          "internalType": "string",
          "name": "",
          "type": "string"
        }
      ],
      "stateMutability": "view",
      "type": "function"
    },
    {
      "inputs": [
        {
          "internalType": "uint256",
          "name": "tokenId",
          "type": "uint256"
        }
      ],
      "name": "pickThirdWord",
      "outputs": [
        {
          "internalType": "string",
          "name": "",
          "type": "string"
        }
      ],
      "stateMutability": "view",
      "type": "function"
    },
    {
      "inputs": [
        {
          "internalType": "address",
          "name": "from",
          "type": "address"
        },
        {
          "internalType": "address",
          "name": "to",
          "type": "address"
        },
        {
          "internalType": "uint256",
          "name": "tokenId",
          "type": "uint256"
        }
      ],
      "name": "safeTransferFrom",
      "outputs": [],
      "stateMutability": "nonpayable",
      "type": "function"
    },
    {
      "inputs": [
        {
          "internalType": "address",
          "name": "from",
          "type": "address"
        },
        {
          "internalType": "address",
          "name": "to",
          "type": "address"
        },
        {
          "internalType": "uint256",
          "name": "tokenId",
          "type": "uint256"
        },
        {
          "internalType": "bytes",
          "name": "_data",
          "type": "bytes"
        }
      ],
      "name": "safeTransferFrom",
      "outputs": [],
      "stateMutability": "nonpayable",
      "type": "function"
    },
    {
      "inputs": [
        {
          "internalType": "address",
          "name": "operator",
          "type": "address"
        },
        {
          "internalType": "bool",
          "name": "approved",
          "type": "bool"
        }
      ],
      "name": "setApprovalForAll",
      "outputs": [],
      "stateMutability": "nonpayable",
      "type": "function"
    },
    {
      "inputs": [
        {
          "internalType": "bytes4",
          "name": "interfaceId",
          "type": "bytes4"
        }
      ],
      "name": "supportsInterface",
      "outputs": [
        {
          "internalType": "bool",
          "name": "",
          "type": "bool"
        }
      ],
      "stateMutability": "view",
      "type": "function"
    },
    {
      "inputs": [],
      "name": "symbol",
      "outputs": [
        {
          "internalType": "string",
          "name": "",
          "type": "string"
        }
      ],
      "stateMutability": "view",
      "type": "function"
    },
    {
      "inputs": [
        {
          "internalType": "uint256",
          "name": "tokenId",
          "type": "uint256"
        }
      ],
      "name": "tokenURI",
      "outputs": [
        {
          "internalType": "string",
          "name": "",
          "type": "string"
        }
      ],
      "stateMutability": "view",
      "type": "function"
    },
    {
      "inputs": [
        {
          "internalType": "address",
          "name": "from",
          "type": "address"
        },
        {
          "internalType": "address",
          "name": "to",
          "type": "address"
        },
        {
          "internalType": "uint256",
          "name": "tokenId",
          "type": "uint256"
        }
      ],
      "name": "transferFrom",
      "outputs": [],
      "stateMutability": "nonpayable",
      "type": "function"
    }
  ],
  "bytecode": "0x608060405260405180610160016040528061012f815260200162004bf361012f9139600d90805190602001906200003892919062000ac9565b506040518061016001604052806040518060400160405280600481526020017f466972650000000000000000000000000000000000000000000000000000000081525081526020016040518060400160405280600481526020017f57696e640000000000000000000000000000000000000000000000000000000081525081526020016040518060400160405280600481526020017f576176650000000000000000000000000000000000000000000000000000000081525081526020016040518060400160405280600581526020017f456172746800000000000000000000000000000000000000000000000000000081525081526020016040518060400160405280600581526020017f4c6967687400000000000000000000000000000000000000000000000000000081525081526020016040518060400160405280600681526020017f536861646f77000000000000000000000000000000000000000000000000000081525081526020016040518060400160405280600781526020017f5468756e6465720000000000000000000000000000000000000000000000000081525081526020016040518060400160405280600581526020017f537061636500000000000000000000000000000000000000000000000000000081525081526020016040518060400160405280600481526020017f54696d650000000000000000000000000000000000000000000000000000000081525081526020016040518060400160405280600781526020017f477261766974790000000000000000000000000000000000000000000000000081525081526020016040518060400160405280600381526020017f4963650000000000000000000000000000000000000000000000000000000000815250815250600e90600b620002de92919062000b5a565b50604051806101e001604052806040518060400160405280600581526020017f53776f726400000000000000000000000000000000000000000000000000000081525081526020016040518060400160405280600581526020017f537065617200000000000000000000000000000000000000000000000000000081525081526020016040518060400160405280600681526020017f536869656c64000000000000000000000000000000000000000000000000000081525081526020016040518060400160405280600681526020017f48616d6d6572000000000000000000000000000000000000000000000000000081525081526020016040518060400160405280600581526020017f536162657200000000000000000000000000000000000000000000000000000081525081526020016040518060400160405280600381526020017f417865000000000000000000000000000000000000000000000000000000000081525081526020016040518060400160405280600381526020017f426f77000000000000000000000000000000000000000000000000000000000081525081526020016040518060400160405280600581526020017f537461666600000000000000000000000000000000000000000000000000000081525081526020016040518060400160405280600481526020017f57616e640000000000000000000000000000000000000000000000000000000081525081526020016040518060400160405280600481526020017f466973740000000000000000000000000000000000000000000000000000000081525081526020016040518060400160405280600681526020017f446167676572000000000000000000000000000000000000000000000000000081525081526020016040518060400160405280600681526020017f536379746865000000000000000000000000000000000000000000000000000081525081526020016040518060400160405280600481526020017f4d6163650000000000000000000000000000000000000000000000000000000081525081526020016040518060400160405280600581526020017f426c61646500000000000000000000000000000000000000000000000000000081525081526020016040518060400160405280600681526020017f4b6174616e610000000000000000000000000000000000000000000000000000815250815250600f90600f6200067092919062000bc1565b506040518060e001604052806040518060400160405280600481526020017f4c6f72640000000000000000000000000000000000000000000000000000000081525081526020016040518060400160405280600481526020017f4b696e670000000000000000000000000000000000000000000000000000000081525081526020016040518060400160405280600781526020017f456d7065726f720000000000000000000000000000000000000000000000000081525081526020016040518060400160405280600981526020017f56656e657261626c65000000000000000000000000000000000000000000000081525081526020016040518060400160405280600881526020017f416e636573746f7200000000000000000000000000000000000000000000000081525081526020016040518060400160405280600581526020017f5361696e7400000000000000000000000000000000000000000000000000000081525081526020016040518060400160405280600381526020017f476f64000000000000000000000000000000000000000000000000000000000081525081525060109060076200082992919062000c28565b503480156200083757600080fd5b5060405162004d2238038062004d2283398181016040528101906200085d919062000d86565b6040518060400160405280600a81526020017f5574696c6974794e4654000000000000000000000000000000000000000000008152506040518060400160405280600481526020017f554e4654000000000000000000000000000000000000000000000000000000008152508160009080519060200190620008e192919062000ac9565b508060019080519060200190620008fa92919062000ac9565b50505080600860006101000a81548173ffffffffffffffffffffffffffffffffffffffff021916908373ffffffffffffffffffffffffffffffffffffffff1602179055506200094e6200099560201b60201c565b600990805190602001906200096592919062000ac9565b506200097662000a2f60201b60201c565b600a90805190602001906200098d92919062000ac9565b505062000e1d565b606060008054620009a69062000de7565b80601f0160208091040260200160405190810160405280929190818152602001828054620009d49062000de7565b801562000a255780601f10620009f95761010080835404028352916020019162000a25565b820191906000526020600020905b81548152906001019060200180831162000a0757829003601f168201915b5050505050905090565b60606001805462000a409062000de7565b80601f016020809104026020016040519081016040528092919081815260200182805462000a6e9062000de7565b801562000abf5780601f1062000a935761010080835404028352916020019162000abf565b820191906000526020600020905b81548152906001019060200180831162000aa157829003601f168201915b5050505050905090565b82805462000ad79062000de7565b90600052602060002090601f01602090048101928262000afb576000855562000b47565b82601f1062000b1657805160ff191683800117855562000b47565b8280016001018555821562000b47579182015b8281111562000b4657825182559160200191906001019062000b29565b5b50905062000b56919062000c8f565b5090565b82805482825590600052602060002090810192821562000bae579160200282015b8281111562000bad57825182908051906020019062000b9c92919062000ac9565b509160200191906001019062000b7b565b5b50905062000bbd919062000cae565b5090565b82805482825590600052602060002090810192821562000c15579160200282015b8281111562000c1457825182908051906020019062000c0392919062000ac9565b509160200191906001019062000be2565b5b50905062000c24919062000cae565b5090565b82805482825590600052602060002090810192821562000c7c579160200282015b8281111562000c7b57825182908051906020019062000c6a92919062000ac9565b509160200191906001019062000c49565b5b50905062000c8b919062000cae565b5090565b5b8082111562000caa57600081600090555060010162000c90565b5090565b5b8082111562000cd2576000818162000cc8919062000cd6565b5060010162000caf565b5090565b50805462000ce49062000de7565b6000825580601f1062000cf8575062000d19565b601f01602090049060005260206000209081019062000d18919062000c8f565b5b50565b600080fd5b600073ffffffffffffffffffffffffffffffffffffffff82169050919050565b600062000d4e8262000d21565b9050919050565b62000d608162000d41565b811462000d6c57600080fd5b50565b60008151905062000d808162000d55565b92915050565b60006020828403121562000d9f5762000d9e62000d1c565b5b600062000daf8482850162000d6f565b91505092915050565b7f4e487b7100000000000000000000000000000000000000000000000000000000600052602260045260246000fd5b6000600282049050600182168062000e0057607f821691505b6020821081141562000e175762000e1662000db8565b5b50919050565b613dc68062000e2d6000396000f3fe608060405234801561001057600080fd5b506004361061012c5760003560e01c806370a08231116100ad578063c630338611610071578063c630338614610343578063c87b56dd14610373578063e2d2c308146103a3578063e5326ab1146103d3578063e985e9c5146103f15761012c565b806370a082311461029f5780638e6e7e4e146102cf57806395d89b41146102ed578063a22cb4651461030b578063b88d4fde146103275761012c565b806323b872dd116100f457806323b872dd146101e95780632f39352a146102055780633bad0d361461022357806342842e0e146102535780636352211e1461026f5761012c565b806301ffc9a71461013157806306fdde0314610161578063081812fc1461017f578063095ea7b3146101af578063162da220146101cb575b600080fd5b61014b6004803603810190610146919061252b565b610421565b6040516101589190612573565b60405180910390f35b610169610503565b6040516101769190612627565b60405180910390f35b6101996004803603810190610194919061267f565b610595565b6040516101a691906126ed565b60405180910390f35b6101c960048036038101906101c49190612734565b61061a565b005b6101d3610732565b6040516101e091906128ee565b60405180910390f35b61020360048036038101906101fe9190612910565b610a13565b005b61020d610a73565b60405161021a9190612627565b60405180910390f35b61023d6004803603810190610238919061267f565b610b01565b60405161024a9190612627565b60405180910390f35b61026d60048036038101906102689190612910565b610bf9565b005b6102896004803603810190610284919061267f565b610c19565b60405161029691906126ed565b60405180910390f35b6102b960048036038101906102b49190612963565b610ccb565b6040516102c6919061299f565b60405180910390f35b6102d7610d83565b6040516102e4919061299f565b60405180910390f35b6102f5610f74565b6040516103029190612627565b60405180910390f35b610325600480360381019061032091906129e6565b611006565b005b610341600480360381019061033c9190612b5b565b61101c565b005b61035d6004803603810190610358919061267f565b61107e565b60405161036a9190612627565b60405180910390f35b61038d6004803603810190610388919061267f565b611176565b60405161039a9190612627565b60405180910390f35b6103bd60048036038101906103b8919061267f565b6112c8565b6040516103ca9190612627565b60405180910390f35b6103db6113c0565b6040516103e89190612627565b60405180910390f35b61040b60048036038101906104069190612bde565b61144e565b6040516104189190612573565b60405180910390f35b60007f80ac58cd000000000000000000000000000000000000000000000000000000007bffffffffffffffffffffffffffffffffffffffffffffffffffffffff1916827bffffffffffffffffffffffffffffffffffffffffffffffffffffffff191614806104ec57507f5b5e139f000000000000000000000000000000000000000000000000000000007bffffffffffffffffffffffffffffffffffffffffffffffffffffffff1916827bffffffffffffffffffffffffffffffffffffffffffffffffffffffff1916145b806104fc57506104fb826114e2565b5b9050919050565b60606000805461051290612c4d565b80601f016020809104026020016040519081016040528092919081815260200182805461053e90612c4d565b801561058b5780601f106105605761010080835404028352916020019161058b565b820191906000526020600020905b81548152906001019060200180831161056e57829003601f168201915b5050505050905090565b60006105a08261154c565b6105df576040517f08c379a00000000000000000000000000000000000000000000000000000000081526004016105d690612cf1565b60405180910390fd5b6004600083815260200190815260200160002060009054906101000a900473ffffffffffffffffffffffffffffffffffffffff169050919050565b600061062582610c19565b90508073ffffffffffffffffffffffffffffffffffffffff168373ffffffffffffffffffffffffffffffffffffffff161415610696576040517f08c379a000000000000000000000000000000000000000000000000000000000815260040161068d90612d83565b60405180910390fd5b8073ffffffffffffffffffffffffffffffffffffffff166106b56115b8565b73ffffffffffffffffffffffffffffffffffffffff1614806106e457506106e3816106de6115b8565b61144e565b5b610723576040517f08c379a000000000000000000000000000000000000000000000000000000000815260040161071a90612e15565b60405180910390fd5b61072d83836115c0565b505050565b606060006107406007611679565b905060008060005b838110156107dd573373ffffffffffffffffffffffffffffffffffffffff16600c600083815260200190815260200160002060010160009054906101000a900473ffffffffffffffffffffffffffffffffffffffff1673ffffffffffffffffffffffffffffffffffffffff1614156107ca576001836107c79190612e64565b92505b80806107d590612eba565b915050610748565b5060008267ffffffffffffffff8111156107fa576107f9612a30565b5b60405190808252806020026020018201604052801561083357816020015b6108206123e5565b8152602001906001900390816108185790505b50905060005b84811015610a08573373ffffffffffffffffffffffffffffffffffffffff16600c600083815260200190815260200160002060010160009054906101000a900473ffffffffffffffffffffffffffffffffffffffff1673ffffffffffffffffffffffffffffffffffffffff1614156109f55760008190506000600c6000838152602001908152602001600020905080604051806060016040529081600082015481526020016001820160009054906101000a900473ffffffffffffffffffffffffffffffffffffffff1673ffffffffffffffffffffffffffffffffffffffff1673ffffffffffffffffffffffffffffffffffffffff16815260200160028201805461094390612c4d565b80601f016020809104026020016040519081016040528092919081815260200182805461096f90612c4d565b80156109bc5780601f10610991576101008083540402835291602001916109bc565b820191906000526020600020905b81548152906001019060200180831161099f57829003601f168201915b5050505050815250508486815181106109d8576109d7612f03565b5b60200260200101819052506001856109f09190612e64565b945050505b8080610a0090612eba565b915050610839565b508094505050505090565b610a24610a1e6115b8565b82611687565b610a63576040517f08c379a0000000000000000000000000000000000000000000000000000000008152600401610a5a90612fa4565b60405180910390fd5b610a6e838383611765565b505050565b600a8054610a8090612c4d565b80601f0160208091040260200160405190810160405280929190818152602001828054610aac90612c4d565b8015610af95780601f10610ace57610100808354040283529160200191610af9565b820191906000526020600020905b815481529060010190602001808311610adc57829003601f168201915b505050505081565b60606000610b35610b11846119c1565b604051602001610b21919061304c565b604051602081830303815290604052611b22565b9050600e8054905081610b48919061309d565b9050600e8181548110610b5e57610b5d612f03565b5b906000526020600020018054610b7390612c4d565b80601f0160208091040260200160405190810160405280929190818152602001828054610b9f90612c4d565b8015610bec5780601f10610bc157610100808354040283529160200191610bec565b820191906000526020600020905b815481529060010190602001808311610bcf57829003601f168201915b5050505050915050919050565b610c148383836040518060200160405280600081525061101c565b505050565b6000806002600084815260200190815260200160002060009054906101000a900473ffffffffffffffffffffffffffffffffffffffff169050600073ffffffffffffffffffffffffffffffffffffffff168173ffffffffffffffffffffffffffffffffffffffff161415610cc2576040517f08c379a0000000000000000000000000000000000000000000000000000000008152600401610cb990613140565b60405180910390fd5b80915050919050565b60008073ffffffffffffffffffffffffffffffffffffffff168273ffffffffffffffffffffffffffffffffffffffff161415610d3c576040517f08c379a0000000000000000000000000000000000000000000000000000000008152600401610d33906131d2565b60405180910390fd5b600360008373ffffffffffffffffffffffffffffffffffffffff1673ffffffffffffffffffffffffffffffffffffffff168152602001908152602001600020549050919050565b600080610d906007611679565b90506000610d9d82610b01565b90506000610daa8361107e565b90506000610db7846112c8565b90506000838383604051602001610dd0939291906131f2565b60405160208183030381529060405290506000600d858585604051602001610dfb9493929190613303565b60405160208183030381529060405290506000610e4083610e1b84611b55565b604051602001610e2c9291906134a2565b604051602081830303815290604052611b55565b9050600081604051602001610e559190613533565b6040516020818303038152906040529050610e703389611ced565b610e7a8882611d0b565b610ea7600860009054906101000a900473ffffffffffffffffffffffffffffffffffffffff166001611006565b60405180606001604052808981526020013373ffffffffffffffffffffffffffffffffffffffff16815260200182815250600c60008a81526020019081526020016000206000820151816000015560208201518160010160006101000a81548173ffffffffffffffffffffffffffffffffffffffff021916908373ffffffffffffffffffffffffffffffffffffffff1602179055506040820151816002019080519060200190610f5892919061241c565b50905050610f666007611d7f565b879850505050505050505090565b606060018054610f8390612c4d565b80601f0160208091040260200160405190810160405280929190818152602001828054610faf90612c4d565b8015610ffc5780601f10610fd157610100808354040283529160200191610ffc565b820191906000526020600020905b815481529060010190602001808311610fdf57829003601f168201915b5050505050905090565b6110186110116115b8565b8383611d95565b5050565b61102d6110276115b8565b83611687565b61106c576040517f08c379a000000000000000000000000000000000000000000000000000000000815260040161106390612fa4565b60405180910390fd5b61107884848484611f02565b50505050565b606060006110b261108e846119c1565b60405160200161109e91906135a1565b604051602081830303815290604052611b22565b9050600f80549050816110c5919061309d565b9050600f81815481106110db576110da612f03565b5b9060005260206000200180546110f090612c4d565b80601f016020809104026020016040519081016040528092919081815260200182805461111c90612c4d565b80156111695780601f1061113e57610100808354040283529160200191611169565b820191906000526020600020905b81548152906001019060200180831161114c57829003601f168201915b5050505050915050919050565b60606111818261154c565b6111c0576040517f08c379a00000000000000000000000000000000000000000000000000000000081526004016111b790613635565b60405180910390fd5b60006006600084815260200190815260200160002080546111e090612c4d565b80601f016020809104026020016040519081016040528092919081815260200182805461120c90612c4d565b80156112595780601f1061122e57610100808354040283529160200191611259565b820191906000526020600020905b81548152906001019060200180831161123c57829003601f168201915b50505050509050600061126a611f5e565b90506000815114156112805781925050506112c3565b6000825111156112b557808260405160200161129d929190613655565b604051602081830303815290604052925050506112c3565b6112be84611f75565b925050505b919050565b606060006112fc6112d8846119c1565b6040516020016112e891906136c5565b604051602081830303815290604052611b22565b90506010805490508161130f919061309d565b90506010818154811061132557611324612f03565b5b90600052602060002001805461133a90612c4d565b80601f016020809104026020016040519081016040528092919081815260200182805461136690612c4d565b80156113b35780601f10611388576101008083540402835291602001916113b3565b820191906000526020600020905b81548152906001019060200180831161139657829003601f168201915b5050505050915050919050565b600980546113cd90612c4d565b80601f01602080910402602001604051908101604052809291908181526020018280546113f990612c4d565b80156114465780601f1061141b57610100808354040283529160200191611446565b820191906000526020600020905b81548152906001019060200180831161142957829003601f168201915b505050505081565b6000600560008473ffffffffffffffffffffffffffffffffffffffff1673ffffffffffffffffffffffffffffffffffffffff16815260200190815260200160002060008373ffffffffffffffffffffffffffffffffffffffff1673ffffffffffffffffffffffffffffffffffffffff16815260200190815260200160002060009054906101000a900460ff16905092915050565b60007f01ffc9a7000000000000000000000000000000000000000000000000000000007bffffffffffffffffffffffffffffffffffffffffffffffffffffffff1916827bffffffffffffffffffffffffffffffffffffffffffffffffffffffff1916149050919050565b60008073ffffffffffffffffffffffffffffffffffffffff166002600084815260200190815260200160002060009054906101000a900473ffffffffffffffffffffffffffffffffffffffff1673ffffffffffffffffffffffffffffffffffffffff1614159050919050565b600033905090565b816004600083815260200190815260200160002060006101000a81548173ffffffffffffffffffffffffffffffffffffffff021916908373ffffffffffffffffffffffffffffffffffffffff160217905550808273ffffffffffffffffffffffffffffffffffffffff1661163383610c19565b73ffffffffffffffffffffffffffffffffffffffff167f8c5be1e5ebec7d5bd14f71427d1e84f3dd0314c0f7b2291e5b200ac8c7c3b92560405160405180910390a45050565b600081600001549050919050565b60006116928261154c565b6116d1576040517f08c379a00000000000000000000000000000000000000000000000000000000081526004016116c890613759565b60405180910390fd5b60006116dc83610c19565b90508073ffffffffffffffffffffffffffffffffffffffff168473ffffffffffffffffffffffffffffffffffffffff16148061174b57508373ffffffffffffffffffffffffffffffffffffffff1661173384610595565b73ffffffffffffffffffffffffffffffffffffffff16145b8061175c575061175b818561144e565b5b91505092915050565b8273ffffffffffffffffffffffffffffffffffffffff1661178582610c19565b73ffffffffffffffffffffffffffffffffffffffff16146117db576040517f08c379a00000000000000000000000000000000000000000000000000000000081526004016117d2906137eb565b60405180910390fd5b600073ffffffffffffffffffffffffffffffffffffffff168273ffffffffffffffffffffffffffffffffffffffff16141561184b576040517f08c379a00000000000000000000000000000000000000000000000000000000081526004016118429061387d565b60405180910390fd5b61185683838361201c565b6118616000826115c0565b6001600360008573ffffffffffffffffffffffffffffffffffffffff1673ffffffffffffffffffffffffffffffffffffffff16815260200190815260200160002060008282546118b1919061389d565b925050819055506001600360008473ffffffffffffffffffffffffffffffffffffffff1673ffffffffffffffffffffffffffffffffffffffff16815260200190815260200160002060008282546119089190612e64565b92505081905550816002600083815260200190815260200160002060006101000a81548173ffffffffffffffffffffffffffffffffffffffff021916908373ffffffffffffffffffffffffffffffffffffffff160217905550808273ffffffffffffffffffffffffffffffffffffffff168473ffffffffffffffffffffffffffffffffffffffff167fddf252ad1be2c89b69c2b068fc378daa952ba7f163c4a11628f55a4df523b3ef60405160405180910390a4505050565b60606000821415611a09576040518060400160405280600181526020017f30000000000000000000000000000000000000000000000000000000000000008152509050611b1d565b600082905060005b60008214611a3b578080611a2490612eba565b915050600a82611a3491906138d1565b9150611a11565b60008167ffffffffffffffff811115611a5757611a56612a30565b5b6040519080825280601f01601f191660200182016040528015611a895781602001600182028036833780820191505090505b5090505b60008514611b1657600182611aa2919061389d565b9150600a85611ab1919061309d565b6030611abd9190612e64565b60f81b818381518110611ad357611ad2612f03565b5b60200101907effffffffffffffffffffffffffffffffffffffffffffffffffffffffffffff1916908160001a905350600a85611b0f91906138d1565b9450611a8d565b8093505050505b919050565b600081604051602001611b359190613902565b6040516020818303038152906040528051906020012060001c9050919050565b60606000825190506000811415611b7e5760405180602001604052806000815250915050611ce8565b60006003600283611b8f9190612e64565b611b9991906138d1565b6004611ba59190613919565b90506000602082611bb69190612e64565b67ffffffffffffffff811115611bcf57611bce612a30565b5b6040519080825280601f01601f191660200182016040528015611c015781602001600182028036833780820191505090505b5090506000604051806060016040528060408152602001613d51604091399050600181016020830160005b86811015611ca55760038101905062ffffff818a015116603f8160121c168401518060081b905060ff603f83600c1c1686015116810190508060081b905060ff603f8360061c1686015116810190508060081b905060ff603f831686015116810190508060e01b90508084526004840193505050611c2c565b506003860660018114611cbf5760028114611ccf57611cda565b613d3d60f01b6002830352611cda565b603d60f81b60018303525b508484525050819450505050505b919050565b611d07828260405180602001604052806000815250612021565b5050565b611d148261154c565b611d53576040517f08c379a0000000000000000000000000000000000000000000000000000000008152600401611d4a906139e5565b60405180910390fd5b80600660008481526020019081526020016000209080519060200190611d7a92919061241c565b505050565b6001816000016000828254019250508190555050565b8173ffffffffffffffffffffffffffffffffffffffff168373ffffffffffffffffffffffffffffffffffffffff161415611e04576040517f08c379a0000000000000000000000000000000000000000000000000000000008152600401611dfb90613a51565b60405180910390fd5b80600560008573ffffffffffffffffffffffffffffffffffffffff1673ffffffffffffffffffffffffffffffffffffffff16815260200190815260200160002060008473ffffffffffffffffffffffffffffffffffffffff1673ffffffffffffffffffffffffffffffffffffffff16815260200190815260200160002060006101000a81548160ff0219169083151502179055508173ffffffffffffffffffffffffffffffffffffffff168373ffffffffffffffffffffffffffffffffffffffff167f17307eab39ab6107e8899845ad3d59bd9653f200f220920489ca2b5937696c3183604051611ef59190612573565b60405180910390a3505050565b611f0d848484611765565b611f198484848461207c565b611f58576040517f08c379a0000000000000000000000000000000000000000000000000000000008152600401611f4f90613ae3565b60405180910390fd5b50505050565b606060405180602001604052806000815250905090565b6060611f808261154c565b611fbf576040517f08c379a0000000000000000000000000000000000000000000000000000000008152600401611fb690613b75565b60405180910390fd5b6000611fc9611f5e565b90506000815111611fe95760405180602001604052806000815250612014565b80611ff3846119c1565b604051602001612004929190613655565b6040516020818303038152906040525b915050919050565b505050565b61202b8383612204565b612038600084848461207c565b612077576040517f08c379a000000000000000000000000000000000000000000000000000000000815260040161206e90613ae3565b60405180910390fd5b505050565b600061209d8473ffffffffffffffffffffffffffffffffffffffff166123d2565b156121f7578373ffffffffffffffffffffffffffffffffffffffff1663150b7a026120c66115b8565b8786866040518563ffffffff1660e01b81526004016120e89493929190613bea565b6020604051808303816000875af192505050801561212457506040513d601f19601f820116820180604052508101906121219190613c4b565b60015b6121a7573d8060008114612154576040519150601f19603f3d011682016040523d82523d6000602084013e612159565b606091505b5060008151141561219f576040517f08c379a000000000000000000000000000000000000000000000000000000000815260040161219690613ae3565b60405180910390fd5b805181602001fd5b63150b7a0260e01b7bffffffffffffffffffffffffffffffffffffffffffffffffffffffff1916817bffffffffffffffffffffffffffffffffffffffffffffffffffffffff1916149150506121fc565b600190505b949350505050565b600073ffffffffffffffffffffffffffffffffffffffff168273ffffffffffffffffffffffffffffffffffffffff161415612274576040517f08c379a000000000000000000000000000000000000000000000000000000000815260040161226b90613cc4565b60405180910390fd5b61227d8161154c565b156122bd576040517f08c379a00000000000000000000000000000000000000000000000000000000081526004016122b490613d30565b60405180910390fd5b6122c96000838361201c565b6001600360008473ffffffffffffffffffffffffffffffffffffffff1673ffffffffffffffffffffffffffffffffffffffff16815260200190815260200160002060008282546123199190612e64565b92505081905550816002600083815260200190815260200160002060006101000a81548173ffffffffffffffffffffffffffffffffffffffff021916908373ffffffffffffffffffffffffffffffffffffffff160217905550808273ffffffffffffffffffffffffffffffffffffffff16600073ffffffffffffffffffffffffffffffffffffffff167fddf252ad1be2c89b69c2b068fc378daa952ba7f163c4a11628f55a4df523b3ef60405160405180910390a45050565b600080823b905060008111915050919050565b604051806060016040528060008152602001600073ffffffffffffffffffffffffffffffffffffffff168152602001606081525090565b82805461242890612c4d565b90600052602060002090601f01602090048101928261244a5760008555612491565b82601f1061246357805160ff1916838001178555612491565b82800160010185558215612491579182015b82811115612490578251825591602001919060010190612475565b5b50905061249e91906124a2565b5090565b5b808211156124bb5760008160009055506001016124a3565b5090565b6000604051905090565b600080fd5b600080fd5b60007fffffffff0000000000000000000000000000000000000000000000000000000082169050919050565b612508816124d3565b811461251357600080fd5b50565b600081359050612525816124ff565b92915050565b600060208284031215612541576125406124c9565b5b600061254f84828501612516565b91505092915050565b60008115159050919050565b61256d81612558565b82525050565b60006020820190506125886000830184612564565b92915050565b600081519050919050565b600082825260208201905092915050565b60005b838110156125c85780820151818401526020810190506125ad565b838111156125d7576000848401525b50505050565b6000601f19601f8301169050919050565b60006125f98261258e565b6126038185612599565b93506126138185602086016125aa565b61261c816125dd565b840191505092915050565b6000602082019050818103600083015261264181846125ee565b905092915050565b6000819050919050565b61265c81612649565b811461266757600080fd5b50565b60008135905061267981612653565b92915050565b600060208284031215612695576126946124c9565b5b60006126a38482850161266a565b91505092915050565b600073ffffffffffffffffffffffffffffffffffffffff82169050919050565b60006126d7826126ac565b9050919050565b6126e7816126cc565b82525050565b600060208201905061270260008301846126de565b92915050565b612711816126cc565b811461271c57600080fd5b50565b60008135905061272e81612708565b92915050565b6000806040838503121561274b5761274a6124c9565b5b60006127598582860161271f565b925050602061276a8582860161266a565b9150509250929050565b600081519050919050565b600082825260208201905092915050565b6000819050602082019050919050565b6127a981612649565b82525050565b6127b8816126cc565b82525050565b600082825260208201905092915050565b60006127da8261258e565b6127e481856127be565b93506127f48185602086016125aa565b6127fd816125dd565b840191505092915050565b600060608301600083015161282060008601826127a0565b50602083015161283360208601826127af565b506040830151848203604086015261284b82826127cf565b9150508091505092915050565b60006128648383612808565b905092915050565b6000602082019050919050565b600061288482612774565b61288e818561277f565b9350836020820285016128a085612790565b8060005b858110156128dc57848403895281516128bd8582612858565b94506128c88361286c565b925060208a019950506001810190506128a4565b50829750879550505050505092915050565b600060208201905081810360008301526129088184612879565b905092915050565b600080600060608486031215612929576129286124c9565b5b60006129378682870161271f565b93505060206129488682870161271f565b92505060406129598682870161266a565b9150509250925092565b600060208284031215612979576129786124c9565b5b60006129878482850161271f565b91505092915050565b61299981612649565b82525050565b60006020820190506129b46000830184612990565b92915050565b6129c381612558565b81146129ce57600080fd5b50565b6000813590506129e0816129ba565b92915050565b600080604083850312156129fd576129fc6124c9565b5b6000612a0b8582860161271f565b9250506020612a1c858286016129d1565b9150509250929050565b600080fd5b600080fd5b7f4e487b7100000000000000000000000000000000000000000000000000000000600052604160045260246000fd5b612a68826125dd565b810181811067ffffffffffffffff82111715612a8757612a86612a30565b5b80604052505050565b6000612a9a6124bf565b9050612aa68282612a5f565b919050565b600067ffffffffffffffff821115612ac657612ac5612a30565b5b612acf826125dd565b9050602081019050919050565b82818337600083830152505050565b6000612afe612af984612aab565b612a90565b905082815260208101848484011115612b1a57612b19612a2b565b5b612b25848285612adc565b509392505050565b600082601f830112612b4257612b41612a26565b5b8135612b52848260208601612aeb565b91505092915050565b60008060008060808587031215612b7557612b746124c9565b5b6000612b838782880161271f565b9450506020612b948782880161271f565b9350506040612ba58782880161266a565b925050606085013567ffffffffffffffff811115612bc657612bc56124ce565b5b612bd287828801612b2d565b91505092959194509250565b60008060408385031215612bf557612bf46124c9565b5b6000612c038582860161271f565b9250506020612c148582860161271f565b9150509250929050565b7f4e487b7100000000000000000000000000000000000000000000000000000000600052602260045260246000fd5b60006002820490506001821680612c6557607f821691505b60208210811415612c7957612c78612c1e565b5b50919050565b7f4552433732313a20617070726f76656420717565727920666f72206e6f6e657860008201527f697374656e7420746f6b656e0000000000000000000000000000000000000000602082015250565b6000612cdb602c83612599565b9150612ce682612c7f565b604082019050919050565b60006020820190508181036000830152612d0a81612cce565b9050919050565b7f4552433732313a20617070726f76616c20746f2063757272656e74206f776e6560008201527f7200000000000000000000000000000000000000000000000000000000000000602082015250565b6000612d6d602183612599565b9150612d7882612d11565b604082019050919050565b60006020820190508181036000830152612d9c81612d60565b9050919050565b7f4552433732313a20617070726f76652063616c6c6572206973206e6f74206f7760008201527f6e6572206e6f7220617070726f76656420666f7220616c6c0000000000000000602082015250565b6000612dff603883612599565b9150612e0a82612da3565b604082019050919050565b60006020820190508181036000830152612e2e81612df2565b9050919050565b7f4e487b7100000000000000000000000000000000000000000000000000000000600052601160045260246000fd5b6000612e6f82612649565b9150612e7a83612649565b9250827fffffffffffffffffffffffffffffffffffffffffffffffffffffffffffffffff03821115612eaf57612eae612e35565b5b828201905092915050565b6000612ec582612649565b91507fffffffffffffffffffffffffffffffffffffffffffffffffffffffffffffffff821415612ef857612ef7612e35565b5b600182019050919050565b7f4e487b7100000000000000000000000000000000000000000000000000000000600052603260045260246000fd5b7f4552433732313a207472616e736665722063616c6c6572206973206e6f74206f60008201527f776e6572206e6f7220617070726f766564000000000000000000000000000000602082015250565b6000612f8e603183612599565b9150612f9982612f32565b604082019050919050565b60006020820190508181036000830152612fbd81612f81565b9050919050565b600081905092915050565b7f656c656d656e7400000000000000000000000000000000000000000000000000600082015250565b6000613005600783612fc4565b915061301082612fcf565b600782019050919050565b60006130268261258e565b6130308185612fc4565b93506130408185602086016125aa565b80840191505092915050565b600061305782612ff8565b9150613063828461301b565b915081905092915050565b7f4e487b7100000000000000000000000000000000000000000000000000000000600052601260045260246000fd5b60006130a882612649565b91506130b383612649565b9250826130c3576130c261306e565b5b828206905092915050565b7f4552433732313a206f776e657220717565727920666f72206e6f6e657869737460008201527f656e7420746f6b656e0000000000000000000000000000000000000000000000602082015250565b600061312a602983612599565b9150613135826130ce565b604082019050919050565b600060208201905081810360008301526131598161311d565b9050919050565b7f4552433732313a2062616c616e636520717565727920666f7220746865207a6560008201527f726f206164647265737300000000000000000000000000000000000000000000602082015250565b60006131bc602a83612599565b91506131c782613160565b604082019050919050565b600060208201905081810360008301526131eb816131af565b9050919050565b60006131fe828661301b565b915061320a828561301b565b9150613216828461301b565b9150819050949350505050565b60008190508160005260206000209050919050565b6000815461324581612c4d565b61324f8186612fc4565b9450600182166000811461326a576001811461327b576132ae565b60ff198316865281860193506132ae565b61328485613223565b60005b838110156132a657815481890152600182019150602081019050613287565b838801955050505b50505092915050565b7f3c2f746578743e3c2f7376673e00000000000000000000000000000000000000600082015250565b60006132ed600d83612fc4565b91506132f8826132b7565b600d82019050919050565b600061330f8287613238565b915061331b828661301b565b9150613327828561301b565b9150613333828461301b565b915061333e826132e0565b915081905095945050505050565b7f7b226e616d65223a202200000000000000000000000000000000000000000000600082015250565b6000613382600a83612fc4565b915061338d8261334c565b600a82019050919050565b7f222c20226465736372697074696f6e223a20224120686967686c79206163636c60008201527f61696d656420636f6c6c656374696f6e20457465726e616c2057617272696f7260208201527f73222c2022696d616765223a2022646174613a696d6167652f7376672b786d6c60408201527f3b6261736536342c000000000000000000000000000000000000000000000000606082015250565b6000613440606883612fc4565b915061344b82613398565b606882019050919050565b7f227d000000000000000000000000000000000000000000000000000000000000600082015250565b600061348c600283612fc4565b915061349782613456565b600282019050919050565b60006134ad82613375565b91506134b9828561301b565b91506134c482613433565b91506134d0828461301b565b91506134db8261347f565b91508190509392505050565b7f646174613a6170706c69636174696f6e2f6a736f6e3b6261736536342c000000600082015250565b600061351d601d83612fc4565b9150613528826134e7565b601d82019050919050565b600061353e82613510565b915061354a828461301b565b915081905092915050565b7f776561706f6e0000000000000000000000000000000000000000000000000000600082015250565b600061358b600683612fc4565b915061359682613555565b600682019050919050565b60006135ac8261357e565b91506135b8828461301b565b915081905092915050565b7f45524337323155524953746f726167653a2055524920717565727920666f722060008201527f6e6f6e6578697374656e7420746f6b656e000000000000000000000000000000602082015250565b600061361f603183612599565b915061362a826135c3565b604082019050919050565b6000602082019050818103600083015261364e81613612565b9050919050565b6000613661828561301b565b915061366d828461301b565b91508190509392505050565b7f72616e6b00000000000000000000000000000000000000000000000000000000600082015250565b60006136af600483612fc4565b91506136ba82613679565b600482019050919050565b60006136d0826136a2565b91506136dc828461301b565b915081905092915050565b7f4552433732313a206f70657261746f7220717565727920666f72206e6f6e657860008201527f697374656e7420746f6b656e0000000000000000000000000000000000000000602082015250565b6000613743602c83612599565b915061374e826136e7565b604082019050919050565b6000602082019050818103600083015261377281613736565b9050919050565b7f4552433732313a207472616e73666572206f6620746f6b656e2074686174206960008201527f73206e6f74206f776e0000000000000000000000000000000000000000000000602082015250565b60006137d5602983612599565b91506137e082613779565b604082019050919050565b60006020820190508181036000830152613804816137c8565b9050919050565b7f4552433732313a207472616e7366657220746f20746865207a65726f2061646460008201527f7265737300000000000000000000000000000000000000000000000000000000602082015250565b6000613867602483612599565b91506138728261380b565b604082019050919050565b600060208201905081810360008301526138968161385a565b9050919050565b60006138a882612649565b91506138b383612649565b9250828210156138c6576138c5612e35565b5b828203905092915050565b60006138dc82612649565b91506138e783612649565b9250826138f7576138f661306e565b5b828204905092915050565b600061390e828461301b565b915081905092915050565b600061392482612649565b915061392f83612649565b9250817fffffffffffffffffffffffffffffffffffffffffffffffffffffffffffffffff048311821515161561396857613967612e35565b5b828202905092915050565b7f45524337323155524953746f726167653a2055524920736574206f66206e6f6e60008201527f6578697374656e7420746f6b656e000000000000000000000000000000000000602082015250565b60006139cf602e83612599565b91506139da82613973565b604082019050919050565b600060208201905081810360008301526139fe816139c2565b9050919050565b7f4552433732313a20617070726f766520746f2063616c6c657200000000000000600082015250565b6000613a3b601983612599565b9150613a4682613a05565b602082019050919050565b60006020820190508181036000830152613a6a81613a2e565b9050919050565b7f4552433732313a207472616e7366657220746f206e6f6e20455243373231526560008201527f63656976657220696d706c656d656e7465720000000000000000000000000000602082015250565b6000613acd603283612599565b9150613ad882613a71565b604082019050919050565b60006020820190508181036000830152613afc81613ac0565b9050919050565b7f4552433732314d657461646174613a2055524920717565727920666f72206e6f60008201527f6e6578697374656e7420746f6b656e0000000000000000000000000000000000602082015250565b6000613b5f602f83612599565b9150613b6a82613b03565b604082019050919050565b60006020820190508181036000830152613b8e81613b52565b9050919050565b600081519050919050565b600082825260208201905092915050565b6000613bbc82613b95565b613bc68185613ba0565b9350613bd68185602086016125aa565b613bdf816125dd565b840191505092915050565b6000608082019050613bff60008301876126de565b613c0c60208301866126de565b613c196040830185612990565b8181036060830152613c2b8184613bb1565b905095945050505050565b600081519050613c45816124ff565b92915050565b600060208284031215613c6157613c606124c9565b5b6000613c6f84828501613c36565b91505092915050565b7f4552433732313a206d696e7420746f20746865207a65726f2061646472657373600082015250565b6000613cae602083612599565b9150613cb982613c78565b602082019050919050565b60006020820190508181036000830152613cdd81613ca1565b9050919050565b7f4552433732313a20746f6b656e20616c7265616479206d696e74656400000000600082015250565b6000613d1a601c83612599565b9150613d2582613ce4565b602082019050919050565b60006020820190508181036000830152613d4981613d0d565b905091905056fe4142434445464748494a4b4c4d4e4f505152535455565758595a6162636465666768696a6b6c6d6e6f707172737475767778797a303132333435363738392b2fa2646970667358221220dec6e5812c2044667188d127460eca78e2bd17cdeaa289f44ea1c2e97e1f95fe64736f6c634300080b00333c73766720786d6c6e733d27687474703a2f2f7777772e77332e6f72672f323030302f73766727207072657365727665417370656374526174696f3d27784d696e594d696e206d656574272076696577426f783d273020302033353020333530273e3c7374796c653e2e62617365207b2066696c6c3a2077686974653b20666f6e742d66616d696c793a2073657269663b20666f6e742d73697a653a20323470783b207d3c2f7374796c653e3c726563742077696474683d273130302527206865696768743d2731303025272066696c6c3d27626c61636b27202f3e3c7465787420783d273530252720793d273530252720636c6173733d27626173652720646f6d696e616e742d626173656c696e653d276d6964646c652720746578742d616e63686f723d276d6964646c65273e",
  "linkReferences": {},
  "deployedLinkReferences": {}
}