{
  "_format": "hh-sol-artifact-1",
  "contractName": "UtilityMarketplace",
  "sourceName": "contracts/UtilityMarketplace.sol",
  "abi": [
    {
      "inputs": [],
      "stateMutability": "nonpayable",
      "type": "constructor"
    },
    {
      "anonymous": false,
      "inputs": [
        {
          "indexed": true,
          "internalType": "uint256",
          "name": "itemId",
          "type": "uint256"
        },
        {
          "indexed": true,
          "internalType": "address",
          "name": "nftContract",
          "type": "address"
        },
        {
          "indexed": true,
          "internalType": "uint256",
          "name": "tokenId",
          "type": "uint256"
        },
        {
          "indexed": false,
          "internalType": "address",
          "name": "seller",
          "type": "address"
        },
        {
          "indexed": false,
          "internalType": "address",
          "name": "owner",
          "type": "address"
        },
        {
          "indexed": false,
          "internalType": "uint256",
          "name": "price",
          "type": "uint256"
        },
        {
          "indexed": false,
          "internalType": "bool",
          "name": "sold",
          "type": "bool"
        }
      ],
      "name": "UtilityNFTMinted",
      "type": "event"
    },
    {
      "stateMutability": "payable",
      "type": "fallback"
    },
    {
      "inputs": [
        {
          "internalType": "address",
          "name": "nftContract",
          "type": "address"
        },
        {
          "internalType": "uint256",
          "name": "itemId",
          "type": "uint256"
        }
      ],
      "name": "createUtilityItemSale",
      "outputs": [],
      "stateMutability": "payable",
      "type": "function"
    },
    {
      "inputs": [
        {
          "internalType": "address",
          "name": "nftContract",
          "type": "address"
        },
        {
          "internalType": "uint256",
          "name": "tokenId",
          "type": "uint256"
        },
        {
          "internalType": "uint256",
          "name": "price",
          "type": "uint256"
        }
      ],
      "name": "createUtilityMarketItem",
      "outputs": [],
      "stateMutability": "payable",
      "type": "function"
    },
    {
      "inputs": [],
      "name": "fetchMyUtilityItems",
      "outputs": [
        {
          "components": [
            {
              "internalType": "uint256",
              "name": "itemId",
              "type": "uint256"
            },
            {
              "internalType": "address",
              "name": "nftContract",
              "type": "address"
            },
            {
              "internalType": "uint256",
              "name": "tokenId",
              "type": "uint256"
            },
            {
              "internalType": "address payable",
              "name": "seller",
              "type": "address"
            },
            {
              "internalType": "address payable",
              "name": "owner",
              "type": "address"
            },
            {
              "internalType": "uint256",
              "name": "price",
              "type": "uint256"
            },
            {
              "internalType": "bool",
              "name": "sold",
              "type": "bool"
            }
          ],
          "internalType": "struct UtilityMarketplace.UtilityItem[]",
          "name": "",
          "type": "tuple[]"
        }
      ],
      "stateMutability": "view",
      "type": "function"
    },
    {
      "inputs": [
        {
          "internalType": "uint256",
          "name": "itemId",
          "type": "uint256"
        }
      ],
      "name": "fetchUtilityItemById",
      "outputs": [
        {
          "components": [
            {
              "internalType": "uint256",
              "name": "itemId",
              "type": "uint256"
            },
            {
              "internalType": "address",
              "name": "nftContract",
              "type": "address"
            },
            {
              "internalType": "uint256",
              "name": "tokenId",
              "type": "uint256"
            },
            {
              "internalType": "address payable",
              "name": "seller",
              "type": "address"
            },
            {
              "internalType": "address payable",
              "name": "owner",
              "type": "address"
            },
            {
              "internalType": "uint256",
              "name": "price",
              "type": "uint256"
            },
            {
              "internalType": "bool",
              "name": "sold",
              "type": "bool"
            }
          ],
          "internalType": "struct UtilityMarketplace.UtilityItem",
          "name": "",
          "type": "tuple"
        }
      ],
      "stateMutability": "view",
      "type": "function"
    },
    {
      "inputs": [],
      "name": "fetchUtilityItems",
      "outputs": [
        {
          "components": [
            {
              "internalType": "uint256",
              "name": "itemId",
              "type": "uint256"
            },
            {
              "internalType": "address",
              "name": "nftContract",
              "type": "address"
            },
            {
              "internalType": "uint256",
              "name": "tokenId",
              "type": "uint256"
            },
            {
              "internalType": "address payable",
              "name": "seller",
              "type": "address"
            },
            {
              "internalType": "address payable",
              "name": "owner",
              "type": "address"
            },
            {
              "internalType": "uint256",
              "name": "price",
              "type": "uint256"
            },
            {
              "internalType": "bool",
              "name": "sold",
              "type": "bool"
            }
          ],
          "internalType": "struct UtilityMarketplace.UtilityItem[]",
          "name": "",
          "type": "tuple[]"
        }
      ],
      "stateMutability": "view",
      "type": "function"
    },
    {
      "inputs": [],
      "name": "getListingPrice",
      "outputs": [
        {
          "internalType": "uint256",
          "name": "",
          "type": "uint256"
        }
      ],
      "stateMutability": "view",
      "type": "function"
    },
    {
      "stateMutability": "payable",
      "type": "receive"
    }
  ],
  "bytecode": "0x608060405266470de4df82000060045534801561001b57600080fd5b50600160008190555033600360006101000a81548173ffffffffffffffffffffffffffffffffffffffff021916908373ffffffffffffffffffffffffffffffffffffffff1602179055506118a2806100746000396000f3fe6080604052600436106100595760003560e01c806312e85585146100625780631b19b2671461008d5780633a94924a146100a9578063600c25f4146100d4578063ef8509ba146100ff578063ff4711a31461013c57610060565b3661006057005b005b34801561006e57600080fd5b50610077610158565b6040516100849190610fe7565b60405180910390f35b6100a760048036038101906100a29190611091565b610162565b005b3480156100b557600080fd5b506100be6104c6565b6040516100cb919061127b565b60405180910390f35b3480156100e057600080fd5b506100e96107f0565b6040516100f6919061127b565b60405180910390f35b34801561010b57600080fd5b506101266004803603810190610121919061129d565b610aa2565b6040516101339190611358565b60405180910390f35b61015660048036038101906101519190611373565b610c0a565b005b6000600454905090565b600260005414156101a8576040517f08c379a000000000000000000000000000000000000000000000000000000000815260040161019f90611410565b60405180910390fd5b6002600081905550600081116101f3576040517f08c379a00000000000000000000000000000000000000000000000000000000081526004016101ea9061147c565b60405180910390fd5b6004543414610237576040517f08c379a000000000000000000000000000000000000000000000000000000000815260040161022e9061150e565b60405180910390fd5b60006102436001610f29565b90506040518060e001604052808281526020018573ffffffffffffffffffffffffffffffffffffffff1681526020018481526020013373ffffffffffffffffffffffffffffffffffffffff168152602001600073ffffffffffffffffffffffffffffffffffffffff16815260200183815260200160001515815250600560008381526020019081526020016000206000820151816000015560208201518160010160006101000a81548173ffffffffffffffffffffffffffffffffffffffff021916908373ffffffffffffffffffffffffffffffffffffffff1602179055506040820151816002015560608201518160030160006101000a81548173ffffffffffffffffffffffffffffffffffffffff021916908373ffffffffffffffffffffffffffffffffffffffff16021790555060808201518160040160006101000a81548173ffffffffffffffffffffffffffffffffffffffff021916908373ffffffffffffffffffffffffffffffffffffffff16021790555060a0820151816005015560c08201518160060160006101000a81548160ff0219169083151502179055509050508373ffffffffffffffffffffffffffffffffffffffff166323b872dd3330866040518463ffffffff1660e01b81526004016104249392919061153d565b600060405180830381600087803b15801561043e57600080fd5b505af1158015610452573d6000803e3d6000fd5b505050506104606001610f37565b828473ffffffffffffffffffffffffffffffffffffffff16827f43ac2b6862ee31d0b82650b6ec26f940a36422fd55809185647180760abbbe873360008760006040516104b09493929190611583565b60405180910390a4506001600081905550505050565b606060006104d46001610f29565b905060008060005b83811015610571573373ffffffffffffffffffffffffffffffffffffffff166005600083815260200190815260200160002060040160009054906101000a900473ffffffffffffffffffffffffffffffffffffffff1673ffffffffffffffffffffffffffffffffffffffff16141561055e5760018361055b91906115f7565b92505b80806105699061164d565b9150506104dc565b5060008267ffffffffffffffff81111561058e5761058d611696565b5b6040519080825280602002602001820160405280156105c757816020015b6105b4610f4d565b8152602001906001900390816105ac5790505b50905060005b848110156107e5573373ffffffffffffffffffffffffffffffffffffffff166005600083815260200190815260200160002060040160009054906101000a900473ffffffffffffffffffffffffffffffffffffffff1673ffffffffffffffffffffffffffffffffffffffff1614156107d25760008190506000600560008381526020019081526020016000209050806040518060e0016040529081600082015481526020016001820160009054906101000a900473ffffffffffffffffffffffffffffffffffffffff1673ffffffffffffffffffffffffffffffffffffffff1673ffffffffffffffffffffffffffffffffffffffff168152602001600282015481526020016003820160009054906101000a900473ffffffffffffffffffffffffffffffffffffffff1673ffffffffffffffffffffffffffffffffffffffff1673ffffffffffffffffffffffffffffffffffffffff1681526020016004820160009054906101000a900473ffffffffffffffffffffffffffffffffffffffff1673ffffffffffffffffffffffffffffffffffffffff1673ffffffffffffffffffffffffffffffffffffffff168152602001600582015481526020016006820160009054906101000a900460ff1615151515815250508486815181106107b5576107b46116c5565b5b60200260200101819052506001856107cd91906115f7565b945050505b80806107dd9061164d565b9150506105cd565b508094505050505090565b606060006107fe6001610f29565b9050600061080c6002610f29565b6108166001610f29565b61082091906116f4565b90506000808267ffffffffffffffff81111561083f5761083e611696565b5b60405190808252806020026020018201604052801561087857816020015b610865610f4d565b81526020019060019003908161085d5790505b50905060005b84811015610a9757600073ffffffffffffffffffffffffffffffffffffffff166005600083815260200190815260200160002060040160009054906101000a900473ffffffffffffffffffffffffffffffffffffffff1673ffffffffffffffffffffffffffffffffffffffff161415610a845760008190506000600560008381526020019081526020016000209050806040518060e0016040529081600082015481526020016001820160009054906101000a900473ffffffffffffffffffffffffffffffffffffffff1673ffffffffffffffffffffffffffffffffffffffff1673ffffffffffffffffffffffffffffffffffffffff168152602001600282015481526020016003820160009054906101000a900473ffffffffffffffffffffffffffffffffffffffff1673ffffffffffffffffffffffffffffffffffffffff1673ffffffffffffffffffffffffffffffffffffffff1681526020016004820160009054906101000a900473ffffffffffffffffffffffffffffffffffffffff1673ffffffffffffffffffffffffffffffffffffffff1673ffffffffffffffffffffffffffffffffffffffff168152602001600582015481526020016006820160009054906101000a900460ff161515151581525050848681518110610a6757610a666116c5565b5b6020026020010181905250600185610a7f91906115f7565b945050505b8080610a8f9061164d565b91505061087e565b508094505050505090565b610aaa610f4d565b600560008381526020019081526020016000206040518060e0016040529081600082015481526020016001820160009054906101000a900473ffffffffffffffffffffffffffffffffffffffff1673ffffffffffffffffffffffffffffffffffffffff1673ffffffffffffffffffffffffffffffffffffffff168152602001600282015481526020016003820160009054906101000a900473ffffffffffffffffffffffffffffffffffffffff1673ffffffffffffffffffffffffffffffffffffffff1673ffffffffffffffffffffffffffffffffffffffff1681526020016004820160009054906101000a900473ffffffffffffffffffffffffffffffffffffffff1673ffffffffffffffffffffffffffffffffffffffff1673ffffffffffffffffffffffffffffffffffffffff168152602001600582015481526020016006820160009054906101000a900460ff1615151515815250509050919050565b60026000541415610c50576040517f08c379a0000000000000000000000000000000000000000000000000000000008152600401610c4790611410565b60405180910390fd5b6002600081905550600060056000838152602001908152602001600020600201549050600060056000848152602001908152602001600020600501549050803414610cd0576040517f08c379a0000000000000000000000000000000000000000000000000000000008152600401610cc79061179a565b60405180910390fd5b60006005600085815260200190815260200160002060030160009054906101000a900473ffffffffffffffffffffffffffffffffffffffff1673ffffffffffffffffffffffffffffffffffffffff1634604051610d2c906117eb565b60006040518083038185875af1925050503d8060008114610d69576040519150601f19603f3d011682016040523d82523d6000602084013e610d6e565b606091505b5050905080610db2576040517f08c379a0000000000000000000000000000000000000000000000000000000008152600401610da99061184c565b60405180910390fd5b8473ffffffffffffffffffffffffffffffffffffffff166323b872dd3033866040518463ffffffff1660e01b8152600401610def9392919061153d565b600060405180830381600087803b158015610e0957600080fd5b505af1158015610e1d573d6000803e3d6000fd5b50505050336005600086815260200190815260200160002060040160006101000a81548173ffffffffffffffffffffffffffffffffffffffff021916908373ffffffffffffffffffffffffffffffffffffffff16021790555060016005600086815260200190815260200160002060060160006101000a81548160ff021916908315150217905550610eaf6002610f37565b600360009054906101000a900473ffffffffffffffffffffffffffffffffffffffff1673ffffffffffffffffffffffffffffffffffffffff166108fc6004549081150290604051600060405180830381858888f19350505050158015610f19573d6000803e3d6000fd5b5050505060016000819055505050565b600081600001549050919050565b6001816000016000828254019250508190555050565b6040518060e0016040528060008152602001600073ffffffffffffffffffffffffffffffffffffffff16815260200160008152602001600073ffffffffffffffffffffffffffffffffffffffff168152602001600073ffffffffffffffffffffffffffffffffffffffff168152602001600081526020016000151581525090565b6000819050919050565b610fe181610fce565b82525050565b6000602082019050610ffc6000830184610fd8565b92915050565b600080fd5b600073ffffffffffffffffffffffffffffffffffffffff82169050919050565b600061103282611007565b9050919050565b61104281611027565b811461104d57600080fd5b50565b60008135905061105f81611039565b92915050565b61106e81610fce565b811461107957600080fd5b50565b60008135905061108b81611065565b92915050565b6000806000606084860312156110aa576110a9611002565b5b60006110b886828701611050565b93505060206110c98682870161107c565b92505060406110da8682870161107c565b9150509250925092565b600081519050919050565b600082825260208201905092915050565b6000819050602082019050919050565b61111981610fce565b82525050565b61112881611027565b82525050565b600061113982611007565b9050919050565b6111498161112e565b82525050565b60008115159050919050565b6111648161114f565b82525050565b60e0820160008201516111806000850182611110565b506020820151611193602085018261111f565b5060408201516111a66040850182611110565b5060608201516111b96060850182611140565b5060808201516111cc6080850182611140565b5060a08201516111df60a0850182611110565b5060c08201516111f260c085018261115b565b50505050565b6000611204838361116a565b60e08301905092915050565b6000602082019050919050565b6000611228826110e4565b61123281856110ef565b935061123d83611100565b8060005b8381101561126e57815161125588826111f8565b975061126083611210565b925050600181019050611241565b5085935050505092915050565b60006020820190508181036000830152611295818461121d565b905092915050565b6000602082840312156112b3576112b2611002565b5b60006112c18482850161107c565b91505092915050565b60e0820160008201516112e06000850182611110565b5060208201516112f3602085018261111f565b5060408201516113066040850182611110565b5060608201516113196060850182611140565b50608082015161132c6080850182611140565b5060a082015161133f60a0850182611110565b5060c082015161135260c085018261115b565b50505050565b600060e08201905061136d60008301846112ca565b92915050565b6000806040838503121561138a57611389611002565b5b600061139885828601611050565b92505060206113a98582860161107c565b9150509250929050565b600082825260208201905092915050565b7f5265656e7472616e637947756172643a207265656e7472616e742063616c6c00600082015250565b60006113fa601f836113b3565b9150611405826113c4565b602082019050919050565b60006020820190508181036000830152611429816113ed565b9050919050565b7f5072696365206d7573742062652067726561746572207468616e203000000000600082015250565b6000611466601c836113b3565b915061147182611430565b602082019050919050565b6000602082019050818103600083015261149581611459565b9050919050565b7f5072696365206d75737420626520657175616c20746f206c697374696e67207060008201527f7269636500000000000000000000000000000000000000000000000000000000602082015250565b60006114f86024836113b3565b91506115038261149c565b604082019050919050565b60006020820190508181036000830152611527816114eb565b9050919050565b61153781611027565b82525050565b6000606082019050611552600083018661152e565b61155f602083018561152e565b61156c6040830184610fd8565b949350505050565b61157d8161114f565b82525050565b6000608082019050611598600083018761152e565b6115a5602083018661152e565b6115b26040830185610fd8565b6115bf6060830184611574565b95945050505050565b7f4e487b7100000000000000000000000000000000000000000000000000000000600052601160045260246000fd5b600061160282610fce565b915061160d83610fce565b9250827fffffffffffffffffffffffffffffffffffffffffffffffffffffffffffffffff03821115611642576116416115c8565b5b828201905092915050565b600061165882610fce565b91507fffffffffffffffffffffffffffffffffffffffffffffffffffffffffffffffff82141561168b5761168a6115c8565b5b600182019050919050565b7f4e487b7100000000000000000000000000000000000000000000000000000000600052604160045260246000fd5b7f4e487b7100000000000000000000000000000000000000000000000000000000600052603260045260246000fd5b60006116ff82610fce565b915061170a83610fce565b92508282101561171d5761171c6115c8565b5b828203905092915050565b7f506c65617365207375626d6974207468652061736b656420707269636520696e60008201527f206f7264657220746f20636f6d706c6574652074686520707572636861736500602082015250565b6000611784603f836113b3565b915061178f82611728565b604082019050919050565b600060208201905081810360008301526117b381611777565b9050919050565b600081905092915050565b50565b60006117d56000836117ba565b91506117e0826117c5565b600082019050919050565b60006117f6826117c8565b9150819050919050565b7f5472616e73666572206661696c65640000000000000000000000000000000000600082015250565b6000611836600f836113b3565b915061184182611800565b602082019050919050565b6000602082019050818103600083015261186581611829565b905091905056fea2646970667358221220596bb6e4f676317888001d207490479693c8916eda3d814f2a836928db0fd47564736f6c634300080b0033",
  "linkReferences": {},
  "deployedLinkReferences": {}
}